:03000000020945AD
:0C094500787FE4F6D8FD75813602098C3D
:070C68000102030405060769
:100BC500011F000120001609003F0030005B004FA7
:0E0BD5000066006D007D0007007F006F00804D
:090C4F00D2A0D2A1C2A0C2A122D0
:070C6100C2A0D2A1D2A02223
:100B3F00AB2CAA2DA92E851F827583001208F6FFF4
:020B4F00AD07F0
:100B5100E4FBC2A174807E00A803088006CEA2E750
:100B610013CE13D8F8FFEDF582EF558224FF92A042
:080B7100D2A1C2A10BBB08DCFC
:010B79002259
:100BE400E4FFD2A0FED2A130A00D7480A806088034
:0D0BF40002C313D8FC4207C2A10EBE08E8E0
:010C010022D0
:0A0C4500EF24FF92A0D2A1C2A12269
:100B7A00120C4F7FA0120B4F120B95AF04120B4FA2
:0B0B8A00120B95120C4F7FA1120B4FB5
:0B0B9500E4D2A0D2A1A2A033FFC2A1B5
:010BA0002232
:040C75007F01DFFE1E
:010C79002258
:100BA1008C358D36AA07120C4F7FA0120B4F120BFA
:100BB10095AF02120B4F120B95AF36120B4F120B62
:040BC10095020C612C
:020C1D00AC0722
:100C1F00E4FE120B7A120BE4AE077F01120C4512A1
:040C2F000C61AF069F
:010C3300229E
:1009D1008F2B8B2C8A2D892EE52B5407F508120CB1
:1009E1004F7FA0120B4F120B95AF2B120B4F120B17
:1009F10095E4F51FC374089508FFE51FC39F500ACE
:100A0100120B3F120B95051F80EA120C61E508607D
:100A110037120C58120C4F7FA0120B4F120B95E599
:100A21002B2408C39508FF120B4F120B95C37408B2
:100A31009508F51FE51FC39408500A120B3F120BCE
:090A410095051F80EF120C6122E3
:100B01008B2F8A308931AC05120B7AC3E5209534DD
:100B1100E5336480F8748098501C120BE4AB2FAA63
:100B210030A931852082758300EF120923E4FF1279
:0E0B31000C45052080D57F01120C45020C6199
:080C58007F0A7EB7DEFEDFFC1F
:010C60002271
:100C34008D2B120A4AAF2B120C02120C6FE4F580B2
:010C4400228D
:050C6F00007F2FDFFEF5
:010C7400225D
:100A4A00D3EF648094885060C3EF648094814058E7
:100A5A00EF14B408005051900A6F75F003A4C583CF
:100A6A0025F0C58373020A87020A8B020A92020AD8
:100A7A0096020A9D020AA1020AA8020AACD2A28020
:100A8A0002C2A2D2A3D2A422D2A28002C2A2C2A32A
:100A9A00D2A422D2A28002C2A2D2A3C2A422D2A2E9
:090AAA008002C2A2C2A3C2A42270
:100C0200D3EF6480948A5012C3EF64809480400AC8
:0B0C1200EF25E02409F808E6F5802239
:100AB300E4F52378247C00FD7BFF7A0C7968FE7FC4
:100AC300071208D07B007A0079247F201209D11203
:100AD3000C587F21120C1D8F217F28120C1D8F2291
:100AE3007F2C120C1D8F23AD217F01120C34AD22FC
:0E0AF3007F02120C34AD237F03120C3480E915
:10095100020AB3E493A3F8E493A34003F68001F2FF
:1009610008DFF48029E493A3F85407240CC8C333A7
:10097100C4540F4420C8834004F456800146F6DF76
:10098100E4800B0102040810204080900BC5E47E36
:10099100019360BCA3FF543F30E509541FFEE4936B
:1009A100A360010ECF54C025E060A840B8E493A332
:1009B100FAE493A3F8E493A3C8C582C8CAC583CA5D
:1009C100F0A3C8C582C8CAC583CADFE9DEE780BE15
:010BE3000011
:10080000E709F608DFFA8046E709F208DFFA803EDA
:1008100088828C83E709F0A3DFFA8032E309F608C7
:10082000DFFA8078E309F208DFFA807088828C832F
:10083000E309F0A3DFFA806489828A83E0A3F608E3
:10084000DFFA805889828A83E0A3F208DFFA804CBD
:1008500080D280FA80C680D4806980F28033801094
:1008600080A680EA809A80A880DA80E280CA8033FD
:1008700089828A83ECFAE493A3C8C582C8CCC58375
:10088000CCF0A3C8C582C8CCC583CCDFE9DEE78045
:100890000D89828A83E493A3F608DFF9ECFAA9F0C4
:1008A000EDFB2289828A83ECFAE0A3C8C582C8CC1A
:1008B000C583CCF0A3C8C582C8CCC583CCDFEADE33
:1008C000E880DB89828A83E493A3F208DFF980CC95
:1008D00088F0EF60010E4E60C388F0ED2402B4048E
:1008E0000050B9F582EB2402B4040050AF23234535
:0608F00082239008507302
:1008F600BB010CE58229F582E5833AF583E02250B7
:1009060006E92582F8E622BBFE06E92582F8E22200
:0D091600E58229F582E5833AF583E493221A
:10092300F8BB010DE58229F582E5833AF583E8F00A
:10093300225006E92582C8F622BBFE05E92582C8B6
:02094300F2229E
:00000001FF
