:03000000020800F3
:0C080000787FE4F6D8FD758152020847AD
:0409C000020F000022
:1008E100E4F50CF50D7E097FB1FD12091C7E097F2F
:1008F100697D0112091CC281C28012099FE4F50EB3
:100901007508097509B17811E6750A00F50B08E655
:0A091100750C00F50D7851E6F58134
:01091B0022B9
:10099F00758901758AF0758CD8C28DD2AFD2A9D264
:0209AF008C2298
:03000B00020947A0
:10094700C0E0C2AF758AF0758CD80510E51070024B
:10095700050F6465450F7005F50F751001D2AFD00F
:02096700E0327C
:100985007451250EF8A681050EE50EB40203E4F5B3
:0A0995000E7451250EF8E6F58122DC
:0F09B100E5106464450F7002B28012098580F171
:10096900AE0FAF107C007D3212088CED4C7008E59B
:0C09790010450F6002B28112098580E475
:10091C00AB07AA06AF02EDC43354E02412F8A607C5
:10092C00AF03EDC43354E02411F8A607EDC43354DF
:0B093C00E02412FF74512DF8A60722E2
:10080C000208E1E493A3F8E493A34003F68001F219
:10081C0008DFF48029E493A3F85407240CC8C333ED
:10082C00C4540F4420C8834004F456800146F6DFBC
:10083C00E4800B01020408102040809009C0E47E83
:10084C00019360BCA3FF543F30E509541FFEE493B1
:10085C00A360010ECF54C025E060A840B8E493A378
:10086C00FAE493A3F8E493A3C8C582C8CAC583CAA3
:10087C00F0A3C8C582C8CAC583CADFE9DEE780BE5B
:0109C4000032
:10088C00BC000BBE0029EF8DF084FFADF022E4CC50
:10089C00F875F008EF2FFFEE33FEEC33FCEE9DEC19
:1008AC00984005FCEE9DFE0FD5F0E9E4CEFD22ED5F
:1008BC00F8F5F0EE8420D21CFEADF075F008EF2FA9
:1008CC00FFED33FD4007985006D5F0F222C398FD9A
:0508DC000FD5F0EA2237
:00000001FF
